:020000040800F2
:10000000000002203D0400088D0400088D04000853
:100010008D0400088D0400088D0400080000000015
:100020000000000000000000000000008D04000837
:100030008D040008000000008D0400088D040008F5
:100040008D0400088D0400088D0400088D0400084C
:100050008D0400088D0400088D0400088D0400083C
:100060008D0400088D0400088D0400088D0400082C
:100070008D0400088D0400088D0400088D0400081C
:100080008D0400088D0400088D0400088D0400080C
:100090008D0400088D0400088D0400088D040008FC
:1000A0008D0400088D0400088D0400088D040008EC
:1000B0008D0400088D0400088D0400088D040008DC
:1000C0008D0400088D0400088D0400088D040008CC
:1000D0008D0400088D0400088D0400088D040008BC
:1000E0008D0400088D0400088D0400088D040008AC
:1000F0008D0400088D0400082D0200088D040008FE
:100100008D0400088D0400088D0400088D0400088B
:100110008D0400088D0400088D0400088D0400087B
:100120008D0400088D0400088D0400088D0400086B
:100130008D0400088D0400088D0400088D0400085B
:100140008D0400088D0400088D0400088D0400084B
:100150008D0400088D0400088D0400088D0400083B
:100160008D0400088D0400088D0400088D0400082B
:100170008D0400088D0400088D04000800000000B4
:080180008D0400088D04000845
:1001880010B5054C237833B9044B13B10448AFF3C9
:1001980000800123237010BD04000020000000002F
:1001A800D804000808B5034B1BB103490348AFF353
:1001B800008008BD0000000008000020D8040008E6
:1001C800094A136B43F001031363084B1A6822F4BE
:1001D80040521A601A6842F480521A605A6822F033
:1001E80040025A60704700BF0038024000000240D9
:1001F80008B5FFF7E5FF0A4C636943F04003636104
:100208004FF47A70002100F02BF8636923F0400363
:1002180063614FF47A70002100F022F8EBE700BF29
:10022800000002400B4B1B8A13F0010F11D00A4A41
:100238001368013313600A2B04DD084A536943F03D
:1002480040035361034A138A9BB223F001039BB214
:100258001382704700040140200000200000024083
:1002680050EA010301D010B429E070474FF0E022B2
:10027800136923F4803323F007031361264B1B68AB
:10028800264CA4FB03435B0A4FF4FA7C0CFB03F3F4
:10029800536100239361136943F0010313614FF025
:1002A800E0231B6913F4803FF9D04FF0E022136973
:1002B80023F001031361B0F5FA7041F1FF3140F208
:1002C800F513984271F10003D0D24FF0E022136980
:1002D80023F4803323F0070313610F4B1B680F4986
:1002E800A1FB03135B0A03FB00F050610023936139
:1002F800136943F0010313614FF0E0231B6913F402
:10030800803FF9D04FF0E022136923F00103136115
:100318005DF8044B704700BF00000020D34D621009
:1003280082B00023019300932A4A136843F4803370
:100338001360284B1B6803F400330093019B0133BF
:100348000193009B1BB9019BB3F5A06FF1D1214B21
:100358001B6813F4003F06D001230093009B012B78
:1003680004D002B0704700230093F7E7194B1A6CCA
:1003780042F080521A6418490A6842F480420A60BE
:100388009A689A609A6842F400429A609A6842F4BD
:10039800A0529A60114A5A601A6842F080721A6034
:1003A8000C4B1B6813F0007FFAD00D4B40F205622E
:1003B8001A60A3F580639A6822F003029A609A682B
:1003C80042F002029A60034B9B6803F00C03082B6F
:1003D800F9D1C6E7003802400070004008544004D4
:1003E800003C024010B5104CD4F8883043F4700338
:1003F800C4F888300D4B1A6842F001021A600021D7
:1004080099601A6822F0847222F480321A60084ACD
:100418005A601A6822F480221A60D960FFF780FFB8
:100428004FF00063A36010BD00ED00E0003802400B
:1004380010300024DFF834D0002103E00C4B5B5867
:10044800435004310B480C4B42189A42F6D30B4ADE
:1004580002E0002342F8043B094B9A42F9D3FFF724
:10046800C1FF00F011F8FFF7C3FE7047000002203B
:10047800F804000800000020040000200400002008
:1004880024000020FEE7000070B50D4D0D4C641BE4
:10049800A4100026A64209D10B4D0C4C00F018F808
:1004A800641BA4100026A64205D170BD55F8043B74
:1004B80098470136EEE755F8043B98470136F2E7CE
:1004C800F0040008F0040008F0040008F404000830
:1004D800F8B500BFF8BC08BC9E467047F8B500BF29
:0804E800F8BC08BC9E467047F9
:0404F000AD01000852
:0404F4008901000872
:0404F800007A030A79
:040000050800043DAE
:00000001FF
